{
  "contractName": "Volunteer",
  "abi": [
    {
      "inputs": [],
      "stateMutability": "nonpayable",
      "type": "constructor"
    },
    {
      "inputs": [],
      "name": "AccessControlBadConfirmation",
      "type": "error"
    },
    {
      "inputs": [
        {
          "internalType": "address",
          "name": "account",
          "type": "address"
        },
        {
          "internalType": "bytes32",
          "name": "neededRole",
          "type": "bytes32"
        }
      ],
      "name": "AccessControlUnauthorizedAccount",
      "type": "error"
    },
    {
      "inputs": [
        {
          "internalType": "address",
          "name": "sender",
          "type": "address"
        },
        {
          "internalType": "uint256",
          "name": "balance",
          "type": "uint256"
        },
        {
          "internalType": "uint256",
          "name": "needed",
          "type": "uint256"
        },
        {
          "internalType": "uint256",
          "name": "tokenId",
          "type": "uint256"
        }
      ],
      "name": "ERC1155InsufficientBalance",
      "type": "error"
    },
    {
      "inputs": [
        {
          "internalType": "address",
          "name": "approver",
          "type": "address"
        }
      ],
      "name": "ERC1155InvalidApprover",
      "type": "error"
    },
    {
      "inputs": [
        {
          "internalType": "uint256",
          "name": "idsLength",
          "type": "uint256"
        },
        {
          "internalType": "uint256",
          "name": "valuesLength",
          "type": "uint256"
        }
      ],
      "name": "ERC1155InvalidArrayLength",
      "type": "error"
    },
    {
      "inputs": [
        {
          "internalType": "address",
          "name": "operator",
          "type": "address"
        }
      ],
      "name": "ERC1155InvalidOperator",
      "type": "error"
    },
    {
      "inputs": [
        {
          "internalType": "address",
          "name": "receiver",
          "type": "address"
        }
      ],
      "name": "ERC1155InvalidReceiver",
      "type": "error"
    },
    {
      "inputs": [
        {
          "internalType": "address",
          "name": "sender",
          "type": "address"
        }
      ],
      "name": "ERC1155InvalidSender",
      "type": "error"
    },
    {
      "inputs": [
        {
          "internalType": "address",
          "name": "operator",
          "type": "address"
        },
        {
          "internalType": "address",
          "name": "owner",
          "type": "address"
        }
      ],
      "name": "ERC1155MissingApprovalForAll",
      "type": "error"
    },
    {
      "inputs": [],
      "name": "ReentrancyGuardReentrantCall",
      "type": "error"
    },
    {
      "anonymous": false,
      "inputs": [
        {
          "indexed": true,
          "internalType": "address",
          "name": "account",
          "type": "address"
        },
        {
          "indexed": true,
          "internalType": "address",
          "name": "operator",
          "type": "address"
        },
        {
          "indexed": false,
          "internalType": "bool",
          "name": "approved",
          "type": "bool"
        }
      ],
      "name": "ApprovalForAll",
      "type": "event"
    },
    {
      "anonymous": false,
      "inputs": [
        {
          "indexed": false,
          "internalType": "address",
          "name": "volunteer",
          "type": "address"
        },
        {
          "indexed": false,
          "internalType": "uint256",
          "name": "badgeId",
          "type": "uint256"
        }
      ],
      "name": "BadgeMinted",
      "type": "event"
    },
    {
      "anonymous": false,
      "inputs": [
        {
          "indexed": true,
          "internalType": "uint256",
          "name": "projectId",
          "type": "uint256"
        },
        {
          "indexed": false,
          "internalType": "string",
          "name": "details",
          "type": "string"
        }
      ],
      "name": "ProjectCreated",
      "type": "event"
    },
    {
      "anonymous": false,
      "inputs": [
        {
          "indexed": true,
          "internalType": "bytes32",
          "name": "role",
          "type": "bytes32"
        },
        {
          "indexed": true,
          "internalType": "bytes32",
          "name": "previousAdminRole",
          "type": "bytes32"
        },
        {
          "indexed": true,
          "internalType": "bytes32",
          "name": "newAdminRole",
          "type": "bytes32"
        }
      ],
      "name": "RoleAdminChanged",
      "type": "event"
    },
    {
      "anonymous": false,
      "inputs": [
        {
          "indexed": true,
          "internalType": "bytes32",
          "name": "role",
          "type": "bytes32"
        },
        {
          "indexed": true,
          "internalType": "address",
          "name": "account",
          "type": "address"
        },
        {
          "indexed": true,
          "internalType": "address",
          "name": "sender",
          "type": "address"
        }
      ],
      "name": "RoleGranted",
      "type": "event"
    },
    {
      "anonymous": false,
      "inputs": [
        {
          "indexed": true,
          "internalType": "bytes32",
          "name": "role",
          "type": "bytes32"
        },
        {
          "indexed": true,
          "internalType": "address",
          "name": "account",
          "type": "address"
        },
        {
          "indexed": true,
          "internalType": "address",
          "name": "sender",
          "type": "address"
        }
      ],
      "name": "RoleRevoked",
      "type": "event"
    },
    {
      "anonymous": false,
      "inputs": [
        {
          "indexed": false,
          "internalType": "address",
          "name": "volunteer",
          "type": "address"
        },
        {
          "indexed": false,
          "internalType": "uint256",
          "name": "amount",
          "type": "uint256"
        }
      ],
      "name": "TokenDistributed",
      "type": "event"
    },
    {
      "anonymous": false,
      "inputs": [
        {
          "indexed": true,
          "internalType": "address",
          "name": "operator",
          "type": "address"
        },
        {
          "indexed": true,
          "internalType": "address",
          "name": "from",
          "type": "address"
        },
        {
          "indexed": true,
          "internalType": "address",
          "name": "to",
          "type": "address"
        },
        {
          "indexed": false,
          "internalType": "uint256[]",
          "name": "ids",
          "type": "uint256[]"
        },
        {
          "indexed": false,
          "internalType": "uint256[]",
          "name": "values",
          "type": "uint256[]"
        }
      ],
      "name": "TransferBatch",
      "type": "event"
    },
    {
      "anonymous": false,
      "inputs": [
        {
          "indexed": true,
          "internalType": "address",
          "name": "operator",
          "type": "address"
        },
        {
          "indexed": true,
          "internalType": "address",
          "name": "from",
          "type": "address"
        },
        {
          "indexed": true,
          "internalType": "address",
          "name": "to",
          "type": "address"
        },
        {
          "indexed": false,
          "internalType": "uint256",
          "name": "id",
          "type": "uint256"
        },
        {
          "indexed": false,
          "internalType": "uint256",
          "name": "value",
          "type": "uint256"
        }
      ],
      "name": "TransferSingle",
      "type": "event"
    },
    {
      "anonymous": false,
      "inputs": [
        {
          "indexed": false,
          "internalType": "string",
          "name": "value",
          "type": "string"
        },
        {
          "indexed": true,
          "internalType": "uint256",
          "name": "id",
          "type": "uint256"
        }
      ],
      "name": "URI",
      "type": "event"
    },
    {
      "anonymous": false,
      "inputs": [
        {
          "indexed": true,
          "internalType": "uint256",
          "name": "projectId",
          "type": "uint256"
        },
        {
          "indexed": false,
          "internalType": "address",
          "name": "volunteer",
          "type": "address"
        }
      ],
      "name": "VolunteerCheckedIn",
      "type": "event"
    },
    {
      "anonymous": false,
      "inputs": [
        {
          "indexed": true,
          "internalType": "uint256",
          "name": "projectId",
          "type": "uint256"
        },
        {
          "indexed": false,
          "internalType": "address",
          "name": "volunteer",
          "type": "address"
        },
        {
          "indexed": false,
          "internalType": "uint256",
          "name": "volunteerHours",
          "type": "uint256"
        }
      ],
      "name": "VolunteerCheckedOut",
      "type": "event"
    },
    {
      "anonymous": false,
      "inputs": [
        {
          "indexed": true,
          "internalType": "uint256",
          "name": "projectId",
          "type": "uint256"
        },
        {
          "indexed": false,
          "internalType": "address",
          "name": "volunteer",
          "type": "address"
        }
      ],
      "name": "VolunteerJoined",
      "type": "event"
    },
    {
      "inputs": [],
      "name": "CHARITY_ROLE",
      "outputs": [
        {
          "internalType": "bytes32",
          "name": "",
          "type": "bytes32"
        }
      ],
      "stateMutability": "view",
      "type": "function"
    },
    {
      "inputs": [],
      "name": "DEFAULT_ADMIN_ROLE",
      "outputs": [
        {
          "internalType": "bytes32",
          "name": "",
          "type": "bytes32"
        }
      ],
      "stateMutability": "view",
      "type": "function"
    },
    {
      "inputs": [
        {
          "internalType": "address",
          "name": "account",
          "type": "address"
        },
        {
          "internalType": "uint256",
          "name": "id",
          "type": "uint256"
        }
      ],
      "name": "balanceOf",
      "outputs": [
        {
          "internalType": "uint256",
          "name": "",
          "type": "uint256"
        }
      ],
      "stateMutability": "view",
      "type": "function"
    },
    {
      "inputs": [
        {
          "internalType": "address[]",
          "name": "accounts",
          "type": "address[]"
        },
        {
          "internalType": "uint256[]",
          "name": "ids",
          "type": "uint256[]"
        }
      ],
      "name": "balanceOfBatch",
      "outputs": [
        {
          "internalType": "uint256[]",
          "name": "",
          "type": "uint256[]"
        }
      ],
      "stateMutability": "view",
      "type": "function"
    },
    {
      "inputs": [
        {
          "internalType": "bytes32",
          "name": "role",
          "type": "bytes32"
        }
      ],
      "name": "getRoleAdmin",
      "outputs": [
        {
          "internalType": "bytes32",
          "name": "",
          "type": "bytes32"
        }
      ],
      "stateMutability": "view",
      "type": "function"
    },
    {
      "inputs": [
        {
          "internalType": "bytes32",
          "name": "role",
          "type": "bytes32"
        },
        {
          "internalType": "address",
          "name": "account",
          "type": "address"
        }
      ],
      "name": "grantRole",
      "outputs": [],
      "stateMutability": "nonpayable",
      "type": "function"
    },
    {
      "inputs": [
        {
          "internalType": "bytes32",
          "name": "role",
          "type": "bytes32"
        },
        {
          "internalType": "address",
          "name": "account",
          "type": "address"
        }
      ],
      "name": "hasRole",
      "outputs": [
        {
          "internalType": "bool",
          "name": "",
          "type": "bool"
        }
      ],
      "stateMutability": "view",
      "type": "function"
    },
    {
      "inputs": [
        {
          "internalType": "address",
          "name": "account",
          "type": "address"
        },
        {
          "internalType": "address",
          "name": "operator",
          "type": "address"
        }
      ],
      "name": "isApprovedForAll",
      "outputs": [
        {
          "internalType": "bool",
          "name": "",
          "type": "bool"
        }
      ],
      "stateMutability": "view",
      "type": "function"
    },
    {
      "inputs": [
        {
          "internalType": "uint256",
          "name": "",
          "type": "uint256"
        },
        {
          "internalType": "address",
          "name": "",
          "type": "address"
        }
      ],
      "name": "projectVolunteers",
      "outputs": [
        {
          "internalType": "bool",
          "name": "hasCheckedIn",
          "type": "bool"
        },
        {
          "internalType": "uint256",
          "name": "checkInTime",
          "type": "uint256"
        },
        {
          "internalType": "uint256",
          "name": "volunteerHours",
          "type": "uint256"
        }
      ],
      "stateMutability": "view",
      "type": "function"
    },
    {
      "inputs": [
        {
          "internalType": "uint256",
          "name": "",
          "type": "uint256"
        }
      ],
      "name": "projects",
      "outputs": [
        {
          "internalType": "uint256",
          "name": "id",
          "type": "uint256"
        },
        {
          "internalType": "string",
          "name": "details",
          "type": "string"
        },
        {
          "internalType": "uint256",
          "name": "startDateTime",
          "type": "uint256"
        },
        {
          "internalType": "uint256",
          "name": "endDateTime",
          "type": "uint256"
        },
        {
          "internalType": "uint256",
          "name": "maxVolunteers",
          "type": "uint256"
        },
        {
          "internalType": "uint8",
          "name": "volunteerCount",
          "type": "uint8"
        },
        {
          "internalType": "bool",
          "name": "isActive",
          "type": "bool"
        }
      ],
      "stateMutability": "view",
      "type": "function"
    },
    {
      "inputs": [
        {
          "internalType": "bytes32",
          "name": "role",
          "type": "bytes32"
        },
        {
          "internalType": "address",
          "name": "callerConfirmation",
          "type": "address"
        }
      ],
      "name": "renounceRole",
      "outputs": [],
      "stateMutability": "nonpayable",
      "type": "function"
    },
    {
      "inputs": [
        {
          "internalType": "bytes32",
          "name": "role",
          "type": "bytes32"
        },
        {
          "internalType": "address",
          "name": "account",
          "type": "address"
        }
      ],
      "name": "revokeRole",
      "outputs": [],
      "stateMutability": "nonpayable",
      "type": "function"
    },
    {
      "inputs": [
        {
          "internalType": "address",
          "name": "from",
          "type": "address"
        },
        {
          "internalType": "address",
          "name": "to",
          "type": "address"
        },
        {
          "internalType": "uint256[]",
          "name": "ids",
          "type": "uint256[]"
        },
        {
          "internalType": "uint256[]",
          "name": "values",
          "type": "uint256[]"
        },
        {
          "internalType": "bytes",
          "name": "data",
          "type": "bytes"
        }
      ],
      "name": "safeBatchTransferFrom",
      "outputs": [],
      "stateMutability": "nonpayable",
      "type": "function"
    },
    {
      "inputs": [
        {
          "internalType": "address",
          "name": "from",
          "type": "address"
        },
        {
          "internalType": "address",
          "name": "to",
          "type": "address"
        },
        {
          "internalType": "uint256",
          "name": "id",
          "type": "uint256"
        },
        {
          "internalType": "uint256",
          "name": "value",
          "type": "uint256"
        },
        {
          "internalType": "bytes",
          "name": "data",
          "type": "bytes"
        }
      ],
      "name": "safeTransferFrom",
      "outputs": [],
      "stateMutability": "nonpayable",
      "type": "function"
    },
    {
      "inputs": [
        {
          "internalType": "address",
          "name": "operator",
          "type": "address"
        },
        {
          "internalType": "bool",
          "name": "approved",
          "type": "bool"
        }
      ],
      "name": "setApprovalForAll",
      "outputs": [],
      "stateMutability": "nonpayable",
      "type": "function"
    },
    {
      "inputs": [
        {
          "internalType": "uint256",
          "name": "",
          "type": "uint256"
        }
      ],
      "name": "uri",
      "outputs": [
        {
          "internalType": "string",
          "name": "",
          "type": "string"
        }
      ],
      "stateMutability": "view",
      "type": "function"
    },
    {
      "inputs": [
        {
          "internalType": "bytes4",
          "name": "interfaceId",
          "type": "bytes4"
        }
      ],
      "name": "supportsInterface",
      "outputs": [
        {
          "internalType": "bool",
          "name": "",
          "type": "bool"
        }
      ],
      "stateMutability": "view",
      "type": "function"
    },
    {
      "inputs": [
        {
          "internalType": "string",
          "name": "details",
          "type": "string"
        },
        {
          "internalType": "uint256",
          "name": "startDateTime",
          "type": "uint256"
        },
        {
          "internalType": "uint256",
          "name": "endDateTime",
          "type": "uint256"
        },
        {
          "internalType": "uint256",
          "name": "maxVolunteers",
          "type": "uint256"
        }
      ],
      "name": "createProject",
      "outputs": [],
      "stateMutability": "nonpayable",
      "type": "function"
    },
    {
      "inputs": [
        {
          "internalType": "uint256",
          "name": "projectId",
          "type": "uint256"
        }
      ],
      "name": "joinProject",
      "outputs": [],
      "stateMutability": "nonpayable",
      "type": "function"
    },
    {
      "inputs": [
        {
          "internalType": "uint256",
          "name": "projectId",
          "type": "uint256"
        }
      ],
      "name": "checkIn",
      "outputs": [],
      "stateMutability": "nonpayable",
      "type": "function"
    },
    {
      "inputs": [
        {
          "internalType": "uint256",
          "name": "projectId",
          "type": "uint256"
        }
      ],
      "name": "checkOut",
      "outputs": [],
      "stateMutability": "nonpayable",
      "type": "function"
    },
    {
      "inputs": [
        {
          "internalType": "uint256",
          "name": "projectId",
          "type": "uint256"
        },
        {
          "internalType": "address",
          "name": "volunteer",
          "type": "address"
        }
      ],
      "name": "isVolunteerInProject",
      "outputs": [
        {
          "internalType": "bool",
          "name": "",
          "type": "bool"
        }
      ],
      "stateMutability": "view",
      "type": "function"
    }
  ],
  "bytecode": "0x60806040526103e860055534801562000016575f80fd5b50604051806060016040528060278152602001620042106027913962000042816200006660201b60201c565b5060016004819055506200005f5f801b336200007b60201b60201c565b506200052a565b806002908162000077919062000446565b5050565b5f6200008e83836200017760201b60201c565b6200016d57600160035f8581526020019081526020015f205f015f8473ffffffffffffffffffffffffffffffffffffffff1673ffffffffffffffffffffffffffffffffffffffff1681526020019081526020015f205f6101000a81548160ff02191690831515021790555062000109620001db60201b60201c565b73ffffffffffffffffffffffffffffffffffffffff168273ffffffffffffffffffffffffffffffffffffffff16847f2f8788117e7eff1d82e926ec794901d17c78024a50270940304540a733656f0d60405160405180910390a46001905062000171565b5f90505b92915050565b5f60035f8481526020019081526020015f205f015f8373ffffffffffffffffffffffffffffffffffffffff1673ffffffffffffffffffffffffffffffffffffffff1681526020019081526020015f205f9054906101000a900460ff16905092915050565b5f33905090565b5f81519050919050565b7f4e487b71000000000000000000000000000000000000000000000000000000005f52604160045260245ffd5b7f4e487b71000000000000000000000000000000000000000000000000000000005f52602260045260245ffd5b5f60028204905060018216806200025e57607f821691505b60208210810362000274576200027362000219565b5b50919050565b5f819050815f5260205f209050919050565b5f6020601f8301049050919050565b5f82821b905092915050565b5f60088302620002d87fffffffffffffffffffffffffffffffffffffffffffffffffffffffffffffffff826200029b565b620002e486836200029b565b95508019841693508086168417925050509392505050565b5f819050919050565b5f819050919050565b5f6200032e620003286200032284620002fc565b62000305565b620002fc565b9050919050565b5f819050919050565b62000349836200030e565b62000361620003588262000335565b848454620002a7565b825550505050565b5f90565b6200037762000369565b620003848184846200033e565b505050565b5b81811015620003ab576200039f5f826200036d565b6001810190506200038a565b5050565b601f821115620003fa57620003c4816200027a565b620003cf846200028c565b81016020851015620003df578190505b620003f7620003ee856200028c565b83018262000389565b50505b505050565b5f82821c905092915050565b5f6200041c5f1984600802620003ff565b1980831691505092915050565b5f6200043683836200040b565b9150826002028217905092915050565b6200045182620001e2565b67ffffffffffffffff8111156200046d576200046c620001ec565b5b62000479825462000246565b62000486828285620003af565b5f60209050601f831160018114620004bc575f8415620004a7578287015190505b620004b3858262000429565b86555062000522565b601f198416620004cc866200027a565b5f5b82811015620004f557848901518255600182019150602085019450602081019050620004ce565b8683101562000515578489015162000511601f8916826200040b565b8355505b6001600288020188555050505b505050505050565b613cd880620005385f395ff3fe608060405234801561000f575f80fd5b506004361061013f575f3560e01c8063610a6a2a116100b6578063c3697d971161007a578063c3697d97146103ad578063d547741f146103df578063df98e5f9146103fb578063e95a644f14610417578063e985e9c514610433578063f242432a146104635761013f565b8063610a6a2a146103095780636f0c80671461032557806391d1485414610343578063a217fddf14610373578063a22cb465146103915761013f565b8063248a9ca311610108578063248a9ca3146102255780632eb2c2d6146102555780632f2ff15d1461027157806336568abe1461028d5780634e1273f4146102a957806354c4c762146102d95761013f565b8062fdd58e1461014357806301ffc9a7146101735780630e89341c146101a3578063107046bd146101d35780631bd2eeee14610209575b5f80fd5b61015d600480360381019061015891906125de565b61047f565b60405161016a919061262b565b60405180910390f35b61018d60048036038101906101889190612699565b6104d4565b60405161019a91906126de565b60405180910390f35b6101bd60048036038101906101b891906126f7565b6104e5565b6040516101ca91906127ac565b60405180910390f35b6101ed60048036038101906101e891906126f7565b610577565b60405161020097969594939291906127e7565b60405180910390f35b610223600480360381019061021e91906126f7565b610666565b005b61023f600480360381019061023a919061288e565b61089d565b60405161024c91906128c8565b60405180910390f35b61026f600480360381019061026a9190612ad1565b6108ba565b005b61028b60048036038101906102869190612b9c565b610961565b005b6102a760048036038101906102a29190612b9c565b610983565b005b6102c360048036038101906102be9190612c9a565b6109fe565b6040516102d09190612dc7565b60405180910390f35b6102f360048036038101906102ee9190612de7565b610b0b565b60405161030091906126de565b60405180910390f35b610323600480360381019061031e9190612ec3565b610beb565b005b61032d610e2f565b60405161033a91906128c8565b60405180910390f35b61035d60048036038101906103589190612b9c565b610e53565b60405161036a91906126de565b60405180910390f35b61037b610eb7565b60405161038891906128c8565b60405180910390f35b6103ab60048036038101906103a69190612f6d565b610ebd565b005b6103c760048036038101906103c29190612de7565b610ed3565b6040516103d693929190612fab565b60405180910390f35b6103f960048036038101906103f49190612b9c565b610f10565b005b610415600480360381019061041091906126f7565b610f32565b005b610431600480360381019061042c91906126f7565b61111c565b005b61044d60048036038101906104489190612fe0565b61135e565b60405161045a91906126de565b60405180910390f35b61047d6004803603810190610478919061301e565b6113ec565b005b5f805f8381526020019081526020015f205f8473ffffffffffffffffffffffffffffffffffffffff1673ffffffffffffffffffffffffffffffffffffffff1681526020019081526020015f2054905092915050565b5f6104de82611493565b9050919050565b6060600280546104f4906130de565b80601f0160208091040260200160405190810160405280929190818152602001828054610520906130de565b801561056b5780601f106105425761010080835404028352916020019161056b565b820191905f5260205f20905b81548152906001019060200180831161054e57829003601f168201915b50505050509050919050565b60068181548110610586575f80fd5b905f5260205f20906103ee02015f91509050805f0154908060010180546105ac906130de565b80601f01602080910402602001604051908101604052809291908181526020018280546105d8906130de565b80156106235780601f106105fa57610100808354040283529160200191610623565b820191905f5260205f20905b81548152906001019060200180831161060657829003601f168201915b505050505090806002015490806003015490806004015490806103ed015f9054906101000a900460ff1690806103ed0160019054906101000a900460ff16905087565b60068054905081106106ad576040517f08c379a00000000000000000000000000000000000000000000000000000000081526004016106a490613158565b60405180910390fd5b5f600682815481106106c2576106c1613176565b5b905f5260205f20906103ee020190506106db8233610b0b565b61071a576040517f08c379a0000000000000000000000000000000000000000000000000000000008152600401610711906131ed565b60405180910390fd5b5f60075f8481526020019081526020015f205f3373ffffffffffffffffffffffffffffffffffffffff1673ffffffffffffffffffffffffffffffffffffffff1681526020019081526020015f209050805f015f9054906101000a900460ff166107b8576040517f08c379a00000000000000000000000000000000000000000000000000000000081526004016107af90613255565b60405180910390fd5b5f610e108260010154426107cc91906132a0565b6107d69190613300565b905080826002015f8282546107eb9190613330565b92505081905550837eaaf8778265b415fdf37f722aa1caf18e1f8b799731bd38b36489e2b75b6ed83383604051610823929190613372565b60405180910390a25f670de0b6b3a7640000826108409190613399565b905061085d3360018360405180602001604052805f81525061150c565b7ff6f55ada4fbb9e2bc6813f97e749a30067f3c13a200ce783269b50e6419e8f64338260405161088e929190613372565b60405180910390a15050505050565b5f60035f8381526020019081526020015f20600101549050919050565b5f6108c36115a1565b90508073ffffffffffffffffffffffffffffffffffffffff168673ffffffffffffffffffffffffffffffffffffffff16141580156109085750610906868261135e565b155b1561094c5780866040517fe237d9220000000000000000000000000000000000000000000000000000000081526004016109439291906133da565b60405180910390fd5b61095986868686866115a8565b505050505050565b61096a8261089d565b6109738161169c565b61097d83836116b0565b50505050565b61098b6115a1565b73ffffffffffffffffffffffffffffffffffffffff168173ffffffffffffffffffffffffffffffffffffffff16146109ef576040517f6697b23200000000000000000000000000000000000000000000000000000000815260040160405180910390fd5b6109f9828261179a565b505050565b60608151835114610a4a57815183516040517f5b059991000000000000000000000000000000000000000000000000000000008152600401610a41929190613401565b60405180910390fd5b5f835167ffffffffffffffff811115610a6657610a656128e5565b5b604051908082528060200260200182016040528015610a945781602001602082028036833780820191505090505b5090505f5b8451811015610b0057610ad0610ab8828761188490919063ffffffff16565b610acb838761189790919063ffffffff16565b61047f565b828281518110610ae357610ae2613176565b5b60200260200101818152505080610af990613428565b9050610a99565b508091505092915050565b5f805f90505b60068481548110610b2557610b24613176565b5b905f5260205f209050506103e8811015610be0578273ffffffffffffffffffffffffffffffffffffffff1660068581548110610b6457610b63613176565b5b905f5260205f20906103ee0201600501826103e88110610b8757610b86613176565b5b015f9054906101000a900473ffffffffffffffffffffffffffffffffffffffff1673ffffffffffffffffffffffffffffffffffffffff1603610bcd576001915050610be5565b8080610bd890613428565b915050610b11565b505f90505b92915050565b7f838cb9e68162e54d2dfda44baa96273d8a6cb729c0d42995215e0f52841feb77610c158161169c565b828410610c57576040517f08c379a0000000000000000000000000000000000000000000000000000000008152600401610c4e906134df565b60405180910390fd5b428411610c99576040517f08c379a0000000000000000000000000000000000000000000000000000000008152600401610c9090613547565b60405180910390fd5b5f8211610cdb576040517f08c379a0000000000000000000000000000000000000000000000000000000008152600401610cd2906135d5565b60405180910390fd5b5f6006805490509050610cec612484565b60066040518061010001604052808481526020018981526020018881526020018781526020018681526020018381526020015f60ff16815260200160011515815250908060018154018082558091505060019003905f5260205f20906103ee02015f909190919091505f820151815f01556020820151816001019081610d729190613790565b5060408201518160020155606082015181600301556080820151816004015560a082015181600501906103e8610da99291906124a8565b5060c0820151816103ed015f6101000a81548160ff021916908360ff16021790555060e0820151816103ed0160016101000a81548160ff0219169083151502179055505050817fed06d1e70f1faa0e1750def1b3a1d942390a8f47d03679c9025a1c38dc34fe7b88604051610e1e91906127ac565b60405180910390a250505050505050565b7f838cb9e68162e54d2dfda44baa96273d8a6cb729c0d42995215e0f52841feb7781565b5f60035f8481526020019081526020015f205f015f8373ffffffffffffffffffffffffffffffffffffffff1673ffffffffffffffffffffffffffffffffffffffff1681526020019081526020015f205f9054906101000a900460ff16905092915050565b5f801b81565b610ecf610ec86115a1565b83836118aa565b5050565b6007602052815f5260405f20602052805f5260405f205f9150915050805f015f9054906101000a900460ff16908060010154908060020154905083565b610f198261089d565b610f228161169c565b610f2c838361179a565b50505050565b6006805490508110610f79576040517f08c379a0000000000000000000000000000000000000000000000000000000008152600401610f7090613158565b60405180910390fd5b5f60068281548110610f8e57610f8d613176565b5b905f5260205f20906103ee0201905080600201544210610fe3576040517f08c379a0000000000000000000000000000000000000000000000000000000008152600401610fda906138a9565b60405180910390fd5b8060040154816103ed015f9054906101000a900460ff1660ff161061103d576040517f08c379a000000000000000000000000000000000000000000000000000000000815260040161103490613911565b60405180910390fd5b3381600501826103ed015f9054906101000a900460ff1660ff166103e8811061106957611068613176565b5b015f6101000a81548173ffffffffffffffffffffffffffffffffffffffff021916908373ffffffffffffffffffffffffffffffffffffffff1602179055506001816103ed015f8282829054906101000a900460ff166110c8919061392f565b92506101000a81548160ff021916908360ff160217905550817f6ae6d493c36531db8a292baf871d00c42dfa37cfad31fc6458f04a73fcbbc089336040516111109190613963565b60405180910390a25050565b6006805490508110611163576040517f08c379a000000000000000000000000000000000000000000000000000000000815260040161115a90613158565b60405180910390fd5b5f6006828154811061117857611177613176565b5b905f5260205f20906103ee0201905080600201544210156111ce576040517f08c379a00000000000000000000000000000000000000000000000000000000081526004016111c5906139c6565b60405180910390fd5b8060030154421115611215576040517f08c379a000000000000000000000000000000000000000000000000000000000815260040161120c90613a2e565b60405180910390fd5b61121f8233610b0b565b61125e576040517f08c379a0000000000000000000000000000000000000000000000000000000008152600401611255906131ed565b60405180910390fd5b5f60075f8481526020019081526020015f205f3373ffffffffffffffffffffffffffffffffffffffff1673ffffffffffffffffffffffffffffffffffffffff1681526020019081526020015f209050805f015f9054906101000a900460ff16156112fd576040517f08c379a00000000000000000000000000000000000000000000000000000000081526004016112f490613a96565b60405180910390fd5b6001815f015f6101000a81548160ff021916908315150217905550428160010181905550827f418d484212d8824048a66bff99c49fc2e97b16d088192a71f0119382a16df1bb336040516113519190613963565b60405180910390a2505050565b5f60015f8473ffffffffffffffffffffffffffffffffffffffff1673ffffffffffffffffffffffffffffffffffffffff1681526020019081526020015f205f8373ffffffffffffffffffffffffffffffffffffffff1673ffffffffffffffffffffffffffffffffffffffff1681526020019081526020015f205f9054906101000a900460ff16905092915050565b5f6113f56115a1565b90508073ffffffffffffffffffffffffffffffffffffffff168673ffffffffffffffffffffffffffffffffffffffff161415801561143a5750611438868261135e565b155b1561147e5780866040517fe237d9220000000000000000000000000000000000000000000000000000000081526004016114759291906133da565b60405180910390fd5b61148b8686868686611a13565b505050505050565b5f7f7965db0b000000000000000000000000000000000000000000000000000000007bffffffffffffffffffffffffffffffffffffffffffffffffffffffff1916827bffffffffffffffffffffffffffffffffffffffffffffffffffffffff19161480611505575061150482611b19565b5b9050919050565b5f73ffffffffffffffffffffffffffffffffffffffff168473ffffffffffffffffffffffffffffffffffffffff160361157c575f6040517f57f447ce0000000000000000000000000000000000000000000000000000000081526004016115739190613963565b60405180910390fd5b5f806115888585611bfa565b915091506115995f87848487611c2a565b505050505050565b5f33905090565b5f73ffffffffffffffffffffffffffffffffffffffff168473ffffffffffffffffffffffffffffffffffffffff1603611618575f6040517f57f447ce00000000000000000000000000000000000000000000000000000000815260040161160f9190613963565b60405180910390fd5b5f73ffffffffffffffffffffffffffffffffffffffff168573ffffffffffffffffffffffffffffffffffffffff1603611688575f6040517f01a8351400000000000000000000000000000000000000000000000000000000815260040161167f9190613963565b60405180910390fd5b6116958585858585611c2a565b5050505050565b6116ad816116a86115a1565b611cd6565b50565b5f6116bb8383610e53565b61179057600160035f8581526020019081526020015f205f015f8473ffffffffffffffffffffffffffffffffffffffff1673ffffffffffffffffffffffffffffffffffffffff1681526020019081526020015f205f6101000a81548160ff02191690831515021790555061172d6115a1565b73ffffffffffffffffffffffffffffffffffffffff168273ffffffffffffffffffffffffffffffffffffffff16847f2f8788117e7eff1d82e926ec794901d17c78024a50270940304540a733656f0d60405160405180910390a460019050611794565b5f90505b92915050565b5f6117a58383610e53565b1561187a575f60035f8581526020019081526020015f205f015f8473ffffffffffffffffffffffffffffffffffffffff1673ffffffffffffffffffffffffffffffffffffffff1681526020019081526020015f205f6101000a81548160ff0219169083151502179055506118176115a1565b73ffffffffffffffffffffffffffffffffffffffff168273ffffffffffffffffffffffffffffffffffffffff16847ff6391f5c32d9c69d2a47ea670b442974b53935d1edc7fd64eb21e047a839171b60405160405180910390a46001905061187e565b5f90505b92915050565b5f60208202602084010151905092915050565b5f60208202602084010151905092915050565b5f73ffffffffffffffffffffffffffffffffffffffff168273ffffffffffffffffffffffffffffffffffffffff160361191a575f6040517fced3e1000000000000000000000000000000000000000000000000000000000081526004016119119190613963565b60405180910390fd5b8060015f8573ffffffffffffffffffffffffffffffffffffffff1673ffffffffffffffffffffffffffffffffffffffff1681526020019081526020015f205f8473ffffffffffffffffffffffffffffffffffffffff1673ffffffffffffffffffffffffffffffffffffffff1681526020019081526020015f205f6101000a81548160ff0219169083151502179055508173ffffffffffffffffffffffffffffffffffffffff168373ffffffffffffffffffffffffffffffffffffffff167f17307eab39ab6107e8899845ad3d59bd9653f200f220920489ca2b5937696c3183604051611a0691906126de565b60405180910390a3505050565b5f73ffffffffffffffffffffffffffffffffffffffff168473ffffffffffffffffffffffffffffffffffffffff1603611a83575f6040517f57f447ce000000000000000000000000000000000000000000000000000000008152600401611a7a9190613963565b60405180910390fd5b5f73ffffffffffffffffffffffffffffffffffffffff168573ffffffffffffffffffffffffffffffffffffffff1603611af3575f6040517f01a83514000000000000000000000000000000000000000000000000000000008152600401611aea9190613963565b60405180910390fd5b5f80611aff8585611bfa565b91509150611b108787848487611c2a565b50505050505050565b5f7fd9b67a26000000000000000000000000000000000000000000000000000000007bffffffffffffffffffffffffffffffffffffffffffffffffffffffff1916827bffffffffffffffffffffffffffffffffffffffffffffffffffffffff19161480611be357507f0e89341c000000000000000000000000000000000000000000000000000000007bffffffffffffffffffffffffffffffffffffffffffffffffffffffff1916827bffffffffffffffffffffffffffffffffffffffffffffffffffffffff1916145b80611bf35750611bf282611d27565b5b9050919050565b60608060405191506001825283602083015260408201905060018152826020820152604081016040529250929050565b611c3685858585611d90565b5f73ffffffffffffffffffffffffffffffffffffffff168473ffffffffffffffffffffffffffffffffffffffff1614611ccf575f611c726115a1565b90506001845103611cbe575f611c915f8661189790919063ffffffff16565b90505f611ca75f8661189790919063ffffffff16565b9050611cb7838989858589612126565b5050611ccd565b611ccc8187878787876122d5565b5b505b5050505050565b611ce08282610e53565b611d235780826040517fe2517d3f000000000000000000000000000000000000000000000000000000008152600401611d1a929190613ab4565b60405180910390fd5b5050565b5f7f01ffc9a7000000000000000000000000000000000000000000000000000000007bffffffffffffffffffffffffffffffffffffffffffffffffffffffff1916827bffffffffffffffffffffffffffffffffffffffffffffffffffffffff1916149050919050565b8051825114611dda57815181516040517f5b059991000000000000000000000000000000000000000000000000000000008152600401611dd1929190613401565b60405180910390fd5b5f611de36115a1565b90505f5b8351811015611fe5575f611e04828661189790919063ffffffff16565b90505f611e1a838661189790919063ffffffff16565b90505f73ffffffffffffffffffffffffffffffffffffffff168873ffffffffffffffffffffffffffffffffffffffff1614611f3d575f805f8481526020019081526020015f205f8a73ffffffffffffffffffffffffffffffffffffffff1673ffffffffffffffffffffffffffffffffffffffff1681526020019081526020015f2054905081811015611ee957888183856040517f03dee4c5000000000000000000000000000000000000000000000000000000008152600401611ee09493929190613adb565b60405180910390fd5b8181035f808581526020019081526020015f205f8b73ffffffffffffffffffffffffffffffffffffffff1673ffffffffffffffffffffffffffffffffffffffff1681526020019081526020015f2081905550505b5f73ffffffffffffffffffffffffffffffffffffffff168773ffffffffffffffffffffffffffffffffffffffff1614611fd257805f808481526020019081526020015f205f8973ffffffffffffffffffffffffffffffffffffffff1673ffffffffffffffffffffffffffffffffffffffff1681526020019081526020015f205f828254611fca9190613330565b925050819055505b505080611fde90613428565b9050611de7565b5060018351036120a0575f6120035f8561189790919063ffffffff16565b90505f6120195f8561189790919063ffffffff16565b90508573ffffffffffffffffffffffffffffffffffffffff168773ffffffffffffffffffffffffffffffffffffffff168473ffffffffffffffffffffffffffffffffffffffff167fc3d58168c5ae7397731d063d5bbf3d657854427343f4c083240f7aacaa2d0f628585604051612091929190613401565b60405180910390a4505061211f565b8373ffffffffffffffffffffffffffffffffffffffff168573ffffffffffffffffffffffffffffffffffffffff168273ffffffffffffffffffffffffffffffffffffffff167f4a39dc06d4c0dbc64b70af90fd698a233a518aa5d07e595d983b8c0526c8f7fb8686604051612116929190613b1e565b60405180910390a45b5050505050565b5f8473ffffffffffffffffffffffffffffffffffffffff163b11156122cd578373ffffffffffffffffffffffffffffffffffffffff1663f23a6e6187878686866040518663ffffffff1660e01b8152600401612186959493929190613ba5565b6020604051808303815f875af19250505080156121c157506040513d601f19601f820116820180604052508101906121be9190613c11565b60015b612242573d805f81146121ef576040519150601f19603f3d011682016040523d82523d5f602084013e6121f4565b606091505b505f81510361223a57846040517f57f447ce0000000000000000000000000000000000000000000000000000000081526004016122319190613963565b60405180910390fd5b805181602001fd5b63f23a6e6160e01b7bffffffffffffffffffffffffffffffffffffffffffffffffffffffff1916817bffffffffffffffffffffffffffffffffffffffffffffffffffffffff1916146122cb57846040517f57f447ce0000000000000000000000000000000000000000000000000000000081526004016122c29190613963565b60405180910390fd5b505b505050505050565b5f8473ffffffffffffffffffffffffffffffffffffffff163b111561247c578373ffffffffffffffffffffffffffffffffffffffff1663bc197c8187878686866040518663ffffffff1660e01b8152600401612335959493929190613c3c565b6020604051808303815f875af192505050801561237057506040513d601f19601f8201168201806040525081019061236d9190613c11565b60015b6123f1573d805f811461239e576040519150601f19603f3d011682016040523d82523d5f602084013e6123a3565b606091505b505f8151036123e957846040517f57f447ce0000000000000000000000000000000000000000000000000000000081526004016123e09190613963565b60405180910390fd5b805181602001fd5b63bc197c8160e01b7bffffffffffffffffffffffffffffffffffffffffffffffffffffffff1916817bffffffffffffffffffffffffffffffffffffffffffffffffffffffff19161461247a57846040517f57f447ce0000000000000000000000000000000000000000000000000000000081526004016124719190613963565b60405180910390fd5b505b505050505050565b60405180617d0001604052806103e890602082028036833780820191505090505090565b826103e88101928215612514579160200282015b82811115612513578251825f6101000a81548173ffffffffffffffffffffffffffffffffffffffff021916908373ffffffffffffffffffffffffffffffffffffffff160217905550916020019190600101906124bc565b5b5090506125219190612525565b5090565b5b8082111561253c575f815f905550600101612526565b5090565b5f604051905090565b5f80fd5b5f80fd5b5f73ffffffffffffffffffffffffffffffffffffffff82169050919050565b5f61257a82612551565b9050919050565b61258a81612570565b8114612594575f80fd5b50565b5f813590506125a581612581565b92915050565b5f819050919050565b6125bd816125ab565b81146125c7575f80fd5b50565b5f813590506125d8816125b4565b92915050565b5f80604083850312156125f4576125f3612549565b5b5f61260185828601612597565b9250506020612612858286016125ca565b9150509250929050565b612625816125ab565b82525050565b5f60208201905061263e5f83018461261c565b92915050565b5f7fffffffff0000000000000000000000000000000000000000000000000000000082169050919050565b61267881612644565b8114612682575f80fd5b50565b5f813590506126938161266f565b92915050565b5f602082840312156126ae576126ad612549565b5b5f6126bb84828501612685565b91505092915050565b5f8115159050919050565b6126d8816126c4565b82525050565b5f6020820190506126f15f8301846126cf565b92915050565b5f6020828403121561270c5761270b612549565b5b5f612719848285016125ca565b91505092915050565b5f81519050919050565b5f82825260208201905092915050565b5f5b8381101561275957808201518184015260208101905061273e565b5f8484015250505050565b5f601f19601f8301169050919050565b5f61277e82612722565b612788818561272c565b935061279881856020860161273c565b6127a181612764565b840191505092915050565b5f6020820190508181035f8301526127c48184612774565b905092915050565b5f60ff82169050919050565b6127e1816127cc565b82525050565b5f60e0820190506127fa5f83018a61261c565b818103602083015261280c8189612774565b905061281b604083018861261c565b612828606083018761261c565b612835608083018661261c565b61284260a08301856127d8565b61284f60c08301846126cf565b98975050505050505050565b5f819050919050565b61286d8161285b565b8114612877575f80fd5b50565b5f8135905061288881612864565b92915050565b5f602082840312156128a3576128a2612549565b5b5f6128b08482850161287a565b91505092915050565b6128c28161285b565b82525050565b5f6020820190506128db5f8301846128b9565b92915050565b5f80fd5b7f4e487b71000000000000000000000000000000000000000000000000000000005f52604160045260245ffd5b61291b82612764565b810181811067ffffffffffffffff8211171561293a576129396128e5565b5b80604052505050565b5f61294c612540565b90506129588282612912565b919050565b5f67ffffffffffffffff821115612977576129766128e5565b5b602082029050602081019050919050565b5f80fd5b5f61299e6129998461295d565b612943565b905080838252602082019050602084028301858111156129c1576129c0612988565b5b835b818110156129ea57806129d688826125ca565b8452602084019350506020810190506129c3565b5050509392505050565b5f82601f830112612a0857612a076128e1565b5b8135612a1884826020860161298c565b91505092915050565b5f80fd5b5f67ffffffffffffffff821115612a3f57612a3e6128e5565b5b612a4882612764565b9050602081019050919050565b828183375f83830152505050565b5f612a75612a7084612a25565b612943565b905082815260208101848484011115612a9157612a90612a21565b5b612a9c848285612a55565b509392505050565b5f82601f830112612ab857612ab76128e1565b5b8135612ac8848260208601612a63565b91505092915050565b5f805f805f60a08688031215612aea57612ae9612549565b5b5f612af788828901612597565b9550506020612b0888828901612597565b945050604086013567ffffffffffffffff811115612b2957612b2861254d565b5b612b35888289016129f4565b935050606086013567ffffffffffffffff811115612b5657612b5561254d565b5b612b62888289016129f4565b925050608086013567ffffffffffffffff811115612b8357612b8261254d565b5b612b8f88828901612aa4565b9150509295509295909350565b5f8060408385031215612bb257612bb1612549565b5b5f612bbf8582860161287a565b9250506020612bd085828601612597565b9150509250929050565b5f67ffffffffffffffff821115612bf457612bf36128e5565b5b602082029050602081019050919050565b5f612c17612c1284612bda565b612943565b90508083825260208201905060208402830185811115612c3a57612c39612988565b5b835b81811015612c635780612c4f8882612597565b845260208401935050602081019050612c3c565b5050509392505050565b5f82601f830112612c8157612c806128e1565b5b8135612c91848260208601612c05565b91505092915050565b5f8060408385031215612cb057612caf612549565b5b5f83013567ffffffffffffffff811115612ccd57612ccc61254d565b5b612cd985828601612c6d565b925050602083013567ffffffffffffffff811115612cfa57612cf961254d565b5b612d06858286016129f4565b9150509250929050565b5f81519050919050565b5f82825260208201905092915050565b5f819050602082019050919050565b612d42816125ab565b82525050565b5f612d538383612d39565b60208301905092915050565b5f602082019050919050565b5f612d7582612d10565b612d7f8185612d1a565b9350612d8a83612d2a565b805f5b83811015612dba578151612da18882612d48565b9750612dac83612d5f565b925050600181019050612d8d565b5085935050505092915050565b5f6020820190508181035f830152612ddf8184612d6b565b905092915050565b5f8060408385031215612dfd57612dfc612549565b5b5f612e0a858286016125ca565b9250506020612e1b85828601612597565b9150509250929050565b5f67ffffffffffffffff821115612e3f57612e3e6128e5565b5b612e4882612764565b9050602081019050919050565b5f612e67612e6284612e25565b612943565b905082815260208101848484011115612e8357612e82612a21565b5b612e8e848285612a55565b509392505050565b5f82601f830112612eaa57612ea96128e1565b5b8135612eba848260208601612e55565b91505092915050565b5f805f8060808587031215612edb57612eda612549565b5b5f85013567ffffffffffffffff811115612ef857612ef761254d565b5b612f0487828801612e96565b9450506020612f15878288016125ca565b9350506040612f26878288016125ca565b9250506060612f37878288016125ca565b91505092959194509250565b612f4c816126c4565b8114612f56575f80fd5b50565b5f81359050612f6781612f43565b92915050565b5f8060408385031215612f8357612f82612549565b5b5f612f9085828601612597565b9250506020612fa185828601612f59565b9150509250929050565b5f606082019050612fbe5f8301866126cf565b612fcb602083018561261c565b612fd8604083018461261c565b949350505050565b5f8060408385031215612ff657612ff5612549565b5b5f61300385828601612597565b925050602061301485828601612597565b9150509250929050565b5f805f805f60a0868803121561303757613036612549565b5b5f61304488828901612597565b955050602061305588828901612597565b9450506040613066888289016125ca565b9350506060613077888289016125ca565b925050608086013567ffffffffffffffff8111156130985761309761254d565b5b6130a488828901612aa4565b9150509295509295909350565b7f4e487b71000000000000000000000000000000000000000000000000000000005f52602260045260245ffd5b5f60028204905060018216806130f557607f821691505b602082108103613108576131076130b1565b5b50919050565b7f496e76616c69642070726f6a65637420494400000000000000000000000000005f82015250565b5f61314260128361272c565b915061314d8261310e565b602082019050919050565b5f6020820190508181035f83015261316f81613136565b9050919050565b7f4e487b71000000000000000000000000000000000000000000000000000000005f52603260045260245ffd5b7f4e6f74206120766f6c756e74656572206f6620746869732070726f6a656374005f82015250565b5f6131d7601f8361272c565b91506131e2826131a3565b602082019050919050565b5f6020820190508181035f830152613204816131cb565b9050919050565b7f4e6f7420636865636b656420696e0000000000000000000000000000000000005f82015250565b5f61323f600e8361272c565b915061324a8261320b565b602082019050919050565b5f6020820190508181035f83015261326c81613233565b9050919050565b7f4e487b71000000000000000000000000000000000000000000000000000000005f52601160045260245ffd5b5f6132aa826125ab565b91506132b5836125ab565b92508282039050818111156132cd576132cc613273565b5b92915050565b7f4e487b71000000000000000000000000000000000000000000000000000000005f52601260045260245ffd5b5f61330a826125ab565b9150613315836125ab565b925082613325576133246132d3565b5b828204905092915050565b5f61333a826125ab565b9150613345836125ab565b925082820190508082111561335d5761335c613273565b5b92915050565b61336c81612570565b82525050565b5f6040820190506133855f830185613363565b613392602083018461261c565b9392505050565b5f6133a3826125ab565b91506133ae836125ab565b92508282026133bc816125ab565b915082820484148315176133d3576133d2613273565b5b5092915050565b5f6040820190506133ed5f830185613363565b6133fa6020830184613363565b9392505050565b5f6040820190506134145f83018561261c565b613421602083018461261c565b9392505050565b5f613432826125ab565b91507fffffffffffffffffffffffffffffffffffffffffffffffffffffffffffffffff820361346457613463613273565b5b600182019050919050565b7f53746172742064617465206d757374206265206265666f726520656e642064615f8201527f7465000000000000000000000000000000000000000000000000000000000000602082015250565b5f6134c960228361272c565b91506134d48261346f565b604082019050919050565b5f6020820190508181035f8301526134f6816134bd565b9050919050565b7f53746172742064617465206d75737420626520696e20746865206675747572655f82015250565b5f61353160208361272c565b915061353c826134fd565b602082019050919050565b5f6020820190508181035f83015261355e81613525565b9050919050565b7f4d6178696d756d206e756d626572206f6620766f6c756e7465657273206d75735f8201527f74206265206174206c65617374206f6e65000000000000000000000000000000602082015250565b5f6135bf60318361272c565b91506135ca82613565565b604082019050919050565b5f6020820190508181035f8301526135ec816135b3565b9050919050565b5f819050815f5260205f209050919050565b5f6020601f8301049050919050565b5f82821b905092915050565b5f6008830261364f7fffffffffffffffffffffffffffffffffffffffffffffffffffffffffffffffff82613614565b6136598683613614565b95508019841693508086168417925050509392505050565b5f819050919050565b5f61369461368f61368a846125ab565b613671565b6125ab565b9050919050565b5f819050919050565b6136ad8361367a565b6136c16136b98261369b565b848454613620565b825550505050565b5f90565b6136d56136c9565b6136e08184846136a4565b505050565b5b81811015613703576136f85f826136cd565b6001810190506136e6565b5050565b601f82111561374857613719816135f3565b61372284613605565b81016020851015613731578190505b61374561373d85613605565b8301826136e5565b50505b505050565b5f82821c905092915050565b5f6137685f198460080261374d565b1980831691505092915050565b5f6137808383613759565b9150826002028217905092915050565b61379982612722565b67ffffffffffffffff8111156137b2576137b16128e5565b5b6137bc82546130de565b6137c7828285613707565b5f60209050601f8311600181146137f8575f84156137e6578287015190505b6137f08582613775565b865550613857565b601f198416613806866135f3565b5f5b8281101561382d57848901518255600182019150602085019450602081019050613808565b8683101561384a5784890151613846601f891682613759565b8355505b6001600288020188555050505b505050505050565b7f50726f6a6563742068617320616c7265616479207374617274656400000000005f82015250565b5f613893601b8361272c565b915061389e8261385f565b602082019050919050565b5f6020820190508181035f8301526138c081613887565b9050919050565b7f50726f6a6563742069732066756c6c00000000000000000000000000000000005f82015250565b5f6138fb600f8361272c565b9150613906826138c7565b602082019050919050565b5f6020820190508181035f830152613928816138ef565b9050919050565b5f613939826127cc565b9150613944836127cc565b9250828201905060ff81111561395d5761395c613273565b5b92915050565b5f6020820190506139765f830184613363565b92915050565b7f50726f6a65637420686173206e6f7420737461727465642079657400000000005f82015250565b5f6139b0601b8361272c565b91506139bb8261397c565b602082019050919050565b5f6020820190508181035f8301526139dd816139a4565b9050919050565b7f50726f6a6563742068617320616c726561647920656e646564000000000000005f82015250565b5f613a1860198361272c565b9150613a23826139e4565b602082019050919050565b5f6020820190508181035f830152613a4581613a0c565b9050919050565b7f416c726561647920636865636b656420696e00000000000000000000000000005f82015250565b5f613a8060128361272c565b9150613a8b82613a4c565b602082019050919050565b5f6020820190508181035f830152613aad81613a74565b9050919050565b5f604082019050613ac75f830185613363565b613ad460208301846128b9565b9392505050565b5f608082019050613aee5f830187613363565b613afb602083018661261c565b613b08604083018561261c565b613b15606083018461261c565b95945050505050565b5f6040820190508181035f830152613b368185612d6b565b90508181036020830152613b4a8184612d6b565b90509392505050565b5f81519050919050565b5f82825260208201905092915050565b5f613b7782613b53565b613b818185613b5d565b9350613b9181856020860161273c565b613b9a81612764565b840191505092915050565b5f60a082019050613bb85f830188613363565b613bc56020830187613363565b613bd2604083018661261c565b613bdf606083018561261c565b8181036080830152613bf18184613b6d565b90509695505050505050565b5f81519050613c0b8161266f565b92915050565b5f60208284031215613c2657613c25612549565b5b5f613c3384828501613bfd565b91505092915050565b5f60a082019050613c4f5f830188613363565b613c5c6020830187613363565b8181036040830152613c6e8186612d6b565b90508181036060830152613c828185612d6b565b90508181036080830152613c968184613b6d565b9050969550505050505056fea2646970667358221220d4279515a91769078df33b6b1c2b826f9cdf3e6f8cfcb263f65b8aa9cc12f1ce64736f6c6343000815003368747470733a2f2f796f75726d657461646174612e6170692f6974656d2f7b69647d2e6a736f6e",
  "immutableReferences": {},
  "source": "// SPDX-License-Identifier: MIT\npragma solidity ^0.8.0;\n\nimport \"@openzeppelin/contracts/token/ERC1155/ERC1155.sol\";\nimport \"@openzeppelin/contracts/access/AccessControl.sol\";\nimport \"@openzeppelin/contracts/utils/ReentrancyGuard.sol\";\n\ncontract Volunteer is ERC1155, AccessControl, ReentrancyGuard {\n    bytes32 public constant CHARITY_ROLE = keccak256(\"CHARITY_ROLE\");\n\n    // Token IDs\n    uint256 private constant REWARD_TOKEN_ID = 1; // For reward tokens, fungible\n    // Starting index for unique badge NFTs, non-fungible\n    uint256 private currentBadgeId = 1000;\n\n    struct VolunteerProject {\n        uint256 id;\n        string details;\n        uint256 startDateTime;\n        uint256 endDateTime;\n        uint256 maxVolunteers;\n        address[1000] volunteers;\n        uint8 volunteerCount;\n        bool isActive;\n    }\n\n    struct VolunteerInfo {\n        bool hasCheckedIn;\n        uint256 checkInTime;\n        uint256 volunteerHours;\n    }\n\n    VolunteerProject[] public projects;\n    mapping(uint256 => mapping(address => VolunteerInfo))\n        public projectVolunteers;\n\n    event ProjectCreated(uint256 indexed projectId, string details);\n    event VolunteerJoined(uint256 indexed projectId, address volunteer);\n    event VolunteerCheckedIn(uint256 indexed projectId, address volunteer);\n    event VolunteerCheckedOut(\n        uint256 indexed projectId,\n        address volunteer,\n        uint256 volunteerHours\n    );\n    event TokenDistributed(address volunteer, uint256 amount);\n    event BadgeMinted(address volunteer, uint256 badgeId);\n\n    constructor() ERC1155(\"https://yourmetadata.api/item/{id}.json\") {\n        _grantRole(DEFAULT_ADMIN_ROLE, msg.sender);\n    }\n\n    function supportsInterface(\n        bytes4 interfaceId\n    ) public view virtual override(ERC1155, AccessControl) returns (bool) {\n        return super.supportsInterface(interfaceId);\n    }\n\n    function createProject(\n        string memory details,\n        uint256 startDateTime,\n        uint256 endDateTime,\n        uint256 maxVolunteers\n    ) public onlyRole(CHARITY_ROLE) {\n        require(\n            startDateTime < endDateTime,\n            \"Start date must be before end date\"\n        );\n        require(\n            startDateTime > block.timestamp,\n            \"Start date must be in the future\"\n        );\n        require(\n            maxVolunteers > 0,\n            \"Maximum number of volunteers must be at least one\"\n        );\n\n        uint256 projectId = projects.length;\n        address[1000] memory emptyVolunteers; // No need to explicitly initialize\n\n        projects.push(\n            VolunteerProject({\n                id: projectId,\n                details: details,\n                startDateTime: startDateTime,\n                endDateTime: endDateTime,\n                maxVolunteers: maxVolunteers,\n                volunteers: emptyVolunteers,\n                volunteerCount: 0,\n                isActive: true\n            })\n        );\n\n        emit ProjectCreated(projectId, details);\n    }\n\n    function joinProject(uint256 projectId) public {\n        require(projectId < projects.length, \"Invalid project ID\");\n        VolunteerProject storage project = projects[projectId];\n\n        require(\n            block.timestamp < project.startDateTime,\n            \"Project has already started\"\n        );\n        require(\n            project.volunteerCount < project.maxVolunteers,\n            \"Project is full\"\n        );\n        // Ensure the volunteer is not already in the project; requires iterating over the volunteers array\n\n        project.volunteers[project.volunteerCount] = msg.sender; // Add volunteer to the next spot\n        project.volunteerCount += 1; // Increment the counter\n\n        emit VolunteerJoined(projectId, msg.sender);\n    }\n\n    function checkIn(uint256 projectId) public {\n        require(projectId < projects.length, \"Invalid project ID\");\n        VolunteerProject storage project = projects[projectId];\n\n        require(\n            block.timestamp >= project.startDateTime,\n            \"Project has not started yet\"\n        );\n        require(\n            block.timestamp <= project.endDateTime,\n            \"Project has already ended\"\n        );\n        require(\n            isVolunteerInProject(projectId, msg.sender),\n            \"Not a volunteer of this project\"\n        );\n\n        VolunteerInfo storage volunteer = projectVolunteers[projectId][\n            msg.sender\n        ];\n        require(!volunteer.hasCheckedIn, \"Already checked in\");\n\n        volunteer.hasCheckedIn = true;\n        volunteer.checkInTime = block.timestamp;\n        emit VolunteerCheckedIn(projectId, msg.sender);\n    }\n\n    function checkOut(uint256 projectId) public {\n        require(projectId < projects.length, \"Invalid project ID\");\n        VolunteerProject storage project = projects[projectId];\n\n        require(\n            isVolunteerInProject(projectId, msg.sender),\n            \"Not a volunteer of this project\"\n        );\n\n        VolunteerInfo storage volunteer = projectVolunteers[projectId][\n            msg.sender\n        ];\n        require(volunteer.hasCheckedIn, \"Not checked in\");\n\n        uint256 workedHours = (block.timestamp - volunteer.checkInTime) / 3600;\n        volunteer.volunteerHours += workedHours;\n        emit VolunteerCheckedOut(projectId, msg.sender, workedHours);\n\n        // Example token distribution logic; customize as needed\n        uint256 tokensToDistribute = workedHours * 1e18; // Assuming 1 token per hour\n        _mint(msg.sender, REWARD_TOKEN_ID, tokensToDistribute, \"\");\n        emit TokenDistributed(msg.sender, tokensToDistribute);\n    }\n\n    function isVolunteerInProject(\n        uint256 projectId,\n        address volunteer\n    ) public view returns (bool) {\n        for (uint256 i = 0; i < projects[projectId].volunteers.length; i++) {\n            if (projects[projectId].volunteers[i] == volunteer) {\n                return true;\n            }\n        }\n        return false;\n    }\n\n    // Similar to previous versions but adapted for ERC1155 token interactions\n\n    // New function to mint badges as NFTs\n    function mintBadge(address volunteer) internal {\n        _mint(volunteer, currentBadgeId++, 1, \"\");\n        emit BadgeMinted(volunteer, currentBadgeId - 1);\n    }\n\n    // Function to distribute reward tokens\n    function distributeRewardTokens(\n        address volunteer,\n        uint256 amount\n    ) internal {\n        _mint(volunteer, REWARD_TOKEN_ID, amount, \"\");\n        emit TokenDistributed(volunteer, amount);\n    }\n\n    // Additional utility and management functions as needed...\n}\n",
  "sourcePath": "/Users/alvintjw/Desktop/IS4302/Project/4302-group-project/contracts/Volunteer.sol",
  "compiler": {
    "name": "solc",
    "version": "0.8.21+commit.d9974bed.Emscripten.clang"
  },
  "schemaVersion": "3.4.16",
  "updatedAt": "2024-04-06T16:03:37.537Z",
  "devdoc": {
    "errors": {
      "AccessControlBadConfirmation()": [
        {
          "details": "The caller of a function is not the expected one. NOTE: Don't confuse with {AccessControlUnauthorizedAccount}."
        }
      ],
      "AccessControlUnauthorizedAccount(address,bytes32)": [
        {
          "details": "The `account` is missing a role."
        }
      ],
      "ERC1155InsufficientBalance(address,uint256,uint256,uint256)": [
        {
          "details": "Indicates an error related to the current `balance` of a `sender`. Used in transfers.",
          "params": {
            "balance": "Current balance for the interacting account.",
            "needed": "Minimum amount required to perform a transfer.",
            "sender": "Address whose tokens are being transferred.",
            "tokenId": "Identifier number of a token."
          }
        }
      ],
      "ERC1155InvalidApprover(address)": [
        {
          "details": "Indicates a failure with the `approver` of a token to be approved. Used in approvals.",
          "params": {
            "approver": "Address initiating an approval operation."
          }
        }
      ],
      "ERC1155InvalidArrayLength(uint256,uint256)": [
        {
          "details": "Indicates an array length mismatch between ids and values in a safeBatchTransferFrom operation. Used in batch transfers.",
          "params": {
            "idsLength": "Length of the array of token identifiers",
            "valuesLength": "Length of the array of token amounts"
          }
        }
      ],
      "ERC1155InvalidOperator(address)": [
        {
          "details": "Indicates a failure with the `operator` to be approved. Used in approvals.",
          "params": {
            "operator": "Address that may be allowed to operate on tokens without being their owner."
          }
        }
      ],
      "ERC1155InvalidReceiver(address)": [
        {
          "details": "Indicates a failure with the token `receiver`. Used in transfers.",
          "params": {
            "receiver": "Address to which tokens are being transferred."
          }
        }
      ],
      "ERC1155InvalidSender(address)": [
        {
          "details": "Indicates a failure with the token `sender`. Used in transfers.",
          "params": {
            "sender": "Address whose tokens are being transferred."
          }
        }
      ],
      "ERC1155MissingApprovalForAll(address,address)": [
        {
          "details": "Indicates a failure with the `operator`s approval. Used in transfers.",
          "params": {
            "operator": "Address that may be allowed to operate on tokens without being their owner.",
            "owner": "Address of the current owner of a token."
          }
        }
      ],
      "ReentrancyGuardReentrantCall()": [
        {
          "details": "Unauthorized reentrant call."
        }
      ]
    },
    "events": {
      "ApprovalForAll(address,address,bool)": {
        "details": "Emitted when `account` grants or revokes permission to `operator` to transfer their tokens, according to `approved`."
      },
      "RoleAdminChanged(bytes32,bytes32,bytes32)": {
        "details": "Emitted when `newAdminRole` is set as ``role``'s admin role, replacing `previousAdminRole` `DEFAULT_ADMIN_ROLE` is the starting admin for all roles, despite {RoleAdminChanged} not being emitted signaling this."
      },
      "RoleGranted(bytes32,address,address)": {
        "details": "Emitted when `account` is granted `role`. `sender` is the account that originated the contract call, an admin role bearer except when using {AccessControl-_setupRole}."
      },
      "RoleRevoked(bytes32,address,address)": {
        "details": "Emitted when `account` is revoked `role`. `sender` is the account that originated the contract call:   - if using `revokeRole`, it is the admin role bearer   - if using `renounceRole`, it is the role bearer (i.e. `account`)"
      },
      "TransferBatch(address,address,address,uint256[],uint256[])": {
        "details": "Equivalent to multiple {TransferSingle} events, where `operator`, `from` and `to` are the same for all transfers."
      },
      "TransferSingle(address,address,address,uint256,uint256)": {
        "details": "Emitted when `value` amount of tokens of type `id` are transferred from `from` to `to` by `operator`."
      },
      "URI(string,uint256)": {
        "details": "Emitted when the URI for token type `id` changes to `value`, if it is a non-programmatic URI. If an {URI} event was emitted for `id`, the standard https://eips.ethereum.org/EIPS/eip-1155#metadata-extensions[guarantees] that `value` will equal the value returned by {IERC1155MetadataURI-uri}."
      }
    },
    "kind": "dev",
    "methods": {
      "balanceOf(address,uint256)": {
        "details": "See {IERC1155-balanceOf}."
      },
      "balanceOfBatch(address[],uint256[])": {
        "details": "See {IERC1155-balanceOfBatch}. Requirements: - `accounts` and `ids` must have the same length."
      },
      "getRoleAdmin(bytes32)": {
        "details": "Returns the admin role that controls `role`. See {grantRole} and {revokeRole}. To change a role's admin, use {_setRoleAdmin}."
      },
      "grantRole(bytes32,address)": {
        "details": "Grants `role` to `account`. If `account` had not been already granted `role`, emits a {RoleGranted} event. Requirements: - the caller must have ``role``'s admin role. May emit a {RoleGranted} event."
      },
      "hasRole(bytes32,address)": {
        "details": "Returns `true` if `account` has been granted `role`."
      },
      "isApprovedForAll(address,address)": {
        "details": "See {IERC1155-isApprovedForAll}."
      },
      "renounceRole(bytes32,address)": {
        "details": "Revokes `role` from the calling account. Roles are often managed via {grantRole} and {revokeRole}: this function's purpose is to provide a mechanism for accounts to lose their privileges if they are compromised (such as when a trusted device is misplaced). If the calling account had been revoked `role`, emits a {RoleRevoked} event. Requirements: - the caller must be `callerConfirmation`. May emit a {RoleRevoked} event."
      },
      "revokeRole(bytes32,address)": {
        "details": "Revokes `role` from `account`. If `account` had been granted `role`, emits a {RoleRevoked} event. Requirements: - the caller must have ``role``'s admin role. May emit a {RoleRevoked} event."
      },
      "safeBatchTransferFrom(address,address,uint256[],uint256[],bytes)": {
        "details": "See {IERC1155-safeBatchTransferFrom}."
      },
      "safeTransferFrom(address,address,uint256,uint256,bytes)": {
        "details": "See {IERC1155-safeTransferFrom}."
      },
      "setApprovalForAll(address,bool)": {
        "details": "See {IERC1155-setApprovalForAll}."
      },
      "uri(uint256)": {
        "details": "See {IERC1155MetadataURI-uri}. This implementation returns the same URI for *all* token types. It relies on the token type ID substitution mechanism https://eips.ethereum.org/EIPS/eip-1155#metadata[defined in the EIP]. Clients calling this function must replace the `\\{id\\}` substring with the actual token type ID."
      }
    },
    "version": 1
  },
  "userdoc": {
    "kind": "user",
    "methods": {},
    "version": 1
  }
}